{
  "contractName": "Certification",
  "abi": [
    {
      "constant": true,
      "inputs": [
        {
          "name": "",
          "type": "uint256"
        }
      ],
      "name": "certificates",
      "outputs": [
        {
          "name": "RollNo",
          "type": "uint256"
        },
        {
          "name": "HashedValue",
          "type": "string"
        }
      ],
      "payable": false,
      "stateMutability": "view",
      "type": "function",
      "signature": "0x663b3e22"
    },
    {
      "inputs": [],
      "payable": false,
      "stateMutability": "nonpayable",
      "type": "constructor",
      "signature": "constructor"
    },
    {
      "anonymous": false,
      "inputs": [
        {
          "indexed": false,
          "name": "_CertificateID",
          "type": "uint256"
        }
      ],
      "name": "certificateGenerated",
      "type": "event",
      "signature": "0x06b468c5e7d8daae84b7f9ed142d4077a408b6fa8b8d2b71a605ea7ebebac5fe"
    },
    {
      "constant": false,
      "inputs": [
        {
          "name": "_RollNo",
          "type": "uint256"
        },
        {
          "name": "_HashedValue",
          "type": "string"
        }
      ],
      "name": "GenerateCertificate",
      "outputs": [],
      "payable": false,
      "stateMutability": "nonpayable",
      "type": "function",
      "signature": "0x7fb52c61"
    },
    {
      "constant": true,
      "inputs": [
        {
          "name": "_id",
          "type": "uint256"
        }
      ],
      "name": "RetrieveData",
      "outputs": [
        {
          "name": "",
          "type": "uint256"
        },
        {
          "name": "",
          "type": "string"
        }
      ],
      "payable": false,
      "stateMutability": "view",
      "type": "function",
      "signature": "0x5bed1772"
    }
  ],
  "bytecode": "0x608060405234801561001057600080fd5b506105d1806100206000396000f3fe608060405260043610610057576000357c0100000000000000000000000000000000000000000000000000000000900463ffffffff1680635bed17721461005c578063663b3e22146101175780637fb52c61146101d2575b600080fd5b34801561006857600080fd5b506100956004803603602081101561007f57600080fd5b81019080803590602001909291905050506102a4565b6040518083815260200180602001828103825283818151815260200191508051906020019080838360005b838110156100db5780820151818401526020810190506100c0565b50505050905090810190601f1680156101085780820380516001836020036101000a031916815260200191505b50935050505060405180910390f35b34801561012357600080fd5b506101506004803603602081101561013a57600080fd5b8101908080359060200190929190505050610398565b6040518083815260200180602001828103825283818151815260200191508051906020019080838360005b8381101561019657808201518184015260208101905061017b565b50505050905090810190601f1680156101c35780820380516001836020036101000a031916815260200191505b50935050505060405180910390f35b3480156101de57600080fd5b506102a2600480360360408110156101f557600080fd5b81019080803590602001909291908035906020019064010000000081111561021c57600080fd5b82018360208201111561022e57600080fd5b8035906020019184600183028401116401000000008311171561025057600080fd5b91908080601f016020809104026020016040519081016040528093929190818152602001838380828437600081840152601f19601f820116905080830192505050505050509192919290505050610454565b005b6000606060008390506102b56104e6565b60008083815260200190815260200160002060408051908101604052908160008201548152602001600182018054600181600116156101000203166002900480601f0160208091040260200160405190810160405280929190818152602001828054600181600116156101000203166002900480156103755780601f1061034a57610100808354040283529160200191610375565b820191906000526020600020905b81548152906001019060200180831161035857829003601f168201915b505050505081525050905080600001518160200151809050935093505050915091565b6000602052806000526040600020600091509050806000015490806001018054600181600116156101000203166002900480601f01602080910402602001604051908101604052809291908181526020018280546001816001161561010002031660029004801561044a5780601f1061041f5761010080835404028352916020019161044a565b820191906000526020600020905b81548152906001019060200180831161042d57829003601f168201915b5050505050905082565b60008290506040805190810160405280848152602001838152506000808381526020019081526020016000206000820151816000015560208201518160010190805190602001906104a6929190610500565b509050507f06b468c5e7d8daae84b7f9ed142d4077a408b6fa8b8d2b71a605ea7ebebac5fe816040518082815260200191505060405180910390a1505050565b604080519081016040528060008152602001606081525090565b828054600181600116156101000203166002900490600052602060002090601f016020900481019282601f1061054157805160ff191683800117855561056f565b8280016001018555821561056f579182015b8281111561056e578251825591602001919060010190610553565b5b50905061057c9190610580565b5090565b6105a291905b8082111561059e576000816000905550600101610586565b5090565b9056fea165627a7a7230582055163a93e13f768078a1a3618eb29231b2de2373dcdc109e27adaaa9df6c8c4b0029",
  "source": "// SPDX-License-Identifier: MIT\npragma solidity >=0.4.22 <0.9.0;\n\ncontract Certification\n{\n    constructor() public {}\n    struct Certificate\n    {\n        uint RollNo;\n        string HashedValue;\n    }\n    mapping(uint=>Certificate) public certificates;\n    event certificateGenerated(uint _CertificateID);\n    function GenerateCertificate(uint _RollNo,string memory _HashedValue) public\n    {\n        uint Key = _RollNo;\n        certificates[Key] = Certificate(_RollNo,_HashedValue);\n        emit certificateGenerated(Key);\n    }\n    function RetrieveData(uint _id)public view returns(uint,string memory)\n    {\n        uint Key = _id;\n        Certificate memory retrieved = certificates[Key];\n        return (retrieved.RollNo,retrieved.HashedValue);\n    }\n \n}\n",
  "sourcePath": "/home/karishma/Documents/projects/marksheetVerification/contracts/Certification.sol",
  "compiler": {
    "name": "solc",
    "version": "0.5.0+commit.1d4f565a.Emscripten.clang"
  },
  "schemaVersion": "3.0.1",
  "updatedAt": "2023-08-13T12:14:56.399Z",
  "devdoc": {
    "methods": {}
  },
  "userdoc": {
    "methods": {}
  }
}